:020000040800F2
:1000000000000120A92500083D250008432500081F
:10001000492500084F25000855250008000000006C
:100020000000000000000000000000005B25000848
:10003000692500080000000077250008591E000807
:10004000F9250008F9250008F9250008F925000818
:10005000F9250008F9250008D5120008F912000852
:100060001D1300084113000865130008F925000856
:10007000F9250008F9250008F9250008F9250008E8
:10008000F9250008F9250008F925000800000000FE
:1000900000000000000000000000000089130008BC
:1000A000F9250008F9250008F9250008F9250008B8
:1000B0006D1E0008A91E0008E51E0008F9250008AD
:1000C000F9250008F9250008F9250008491D000850
:1000D0005D1D0008D9200008F92500080000000077
:1000E00049140008F9250008F9250008000000005F
:1000F000000000000000000000000000F9250008DA
:1001000000000000F9250008F9250008711D00080D
:1001100000000000000000000000000000000000DF
:10012000F9250008F9250008F9250008F925000837
:10013000F925000800000000000000000000000099
:10014000000000000000000000000000F925000889
:10015000F9250008F9250008F9250008F925000807
:10016000F9250008F9250008000000000000000043
:10017000000000000000000000000000000000007F
:1001800000000000F9250008000000000000000049
:04019000851D0008C1
:1001940010B5054C237833B9044B13B10448AFF3BD
:1001A40000800123237010BD000000200000000027
:1001B4004426000808B5034B1BB103490348AFF3B9
:1001C400008008BD00000000040000204426000850
:1001D40081F0004102E000BF83F0004330B54FEAF4
:1001E40041044FEA430594EA050F08BF90EA020F61
:1001F4001FBF54EA000C55EA020C7FEA645C7FEAF4
:10020400655C00F0E2804FEA5454D4EB5555B8BF16
:100214006D420CDD2C4480EA020281EA030382EA87
:10022400000083EA010180EA020281EA0303362D19
:1002340088BF30BD11F0004F4FEA01314FF4801CEC
:100244004CEA113102D0404261EB410113F0004FFE
:100254004FEA03334CEA133302D0524263EB4303B5
:1002640094EA050F00F0A780A4F10104D5F1200E53
:100274000DDB02FA0EFC22FA05F2801841F10001AE
:1002840003FA0EF2801843FA05F359410EE0A5F182
:1002940020050EF1200E012A03FA0EFC28BF4CF0B3
:1002A400020C43FA05F3C01851EBE37101F0004569
:1002B40007D54FF0000EDCF1000C7EEB00006EEB76
:1002C4000101B1F5801F1BD3B1F5001F0CD3490800
:1002D4005FEA30004FEA3C0C04F101044FEA445257
:1002E40012F5800F80F09A80BCF1004F08BF5FEADE
:1002F400500C50F1000041EB045141EA050130BDBE
:100304005FEA4C0C404141EB0101013C28BFB1F5CF
:10031400801FE9D291F0000F04BF01460020B1FA1A
:1003240081F308BF2033A3F10B03B3F120020CDAED
:100334000C3208DD02F1140CC2F10C0201FA0CF0CB
:1003440021FA02F10CE002F11402D8BFC2F1200C30
:1003540001FA02F120FA0CFCDCBF41EA0C019040E6
:10036400E41AA2BF01EB0451294330BD6FEA04042F
:100374001F3C1CDA0C340EDC04F11404C4F120021A
:1003840020FA04F001FA02F340EA030021FA04F32C
:1003940045EA030130BDC4F10C04C4F1200220FA83
:1003A40002F001FA04F340EA0300294630BD21FAC1
:1003B40004F0294630BD94F0000F83F4801306BF87
:1003C40081F480110134013D4EE77FEA645C18BF7B
:1003D4007FEA655C29D094EA050F08BF90EA020F12
:1003E40005D054EA000C04BF1946104630BD91EA0A
:1003F400030F1EBF0021002030BD5FEA545C05D10D
:100404004000494128BF41F0004130BD14F580044B
:100414003CBF01F5801130BD01F0004545F0FE41BF
:1004240041F470014FF0000030BD7FEA645C1ABFF4
:10043400194610467FEA655C1CBF0B46024650EA2B
:10044400013406BF52EA033591EA030F41F4002157
:1004540030BD00BF90F0000F04BF0021704730B5DD
:100464004FF4806404F132044FF000054FF00001B2
:1004740050E700BF90F0000F04BF0021704730B573
:100484004FF4806404F1320410F0004548BF404248
:100494004FF000013EE700BF42004FEAE2014FEA9D
:1004A40031014FEA02701FBF12F07F4393F07F4F78
:1004B40081F06051704732F07F4208BF704793F07B
:1004C4007F4F04BF41F40021704730B54FF460748E
:1004D40001F0004521F000411CE700BF50EA010291
:1004E40008BF704730B54FF000050AE050EA01023A
:1004F40008BF704730B511F0004502D5404261EBAA
:1005040041014FF4806404F132045FEA915C3FF4EA
:10051400D8AE4FF003025FEADC0C18BF03325FEA87
:10052400DC0C18BF033202EBDC02C2F1200300FA38
:1005340003FC20FA02F001FA03FE40EA0E0021FA5D
:1005440002F11444BDE600BF70B54FF0FF0C4CF44B
:10055400E06C1CEA11541DBF1CEA135594EA0C0FFD
:1005640095EA0C0F00F0DEF82C4481EA030621EA38
:100574004C5123EA4C5350EA013518BF52EA033573
:1005840041F4801143F4801338D0A0FB02CE4FF025
:100594000005E1FB02E506F00042E0FB03E54FF055
:1005A4000006E1FB03569CF0000F18BF4EF0010E4D
:1005B400A4F1FF04B6F5007F64F5407404D25FEA49
:1005C4004E0E6D4146EB060642EAC62141EA5551FC
:1005D4004FEAC52040EA5E504FEACE2EB4F1FD0C3E
:1005E40088BFBCF5E06F1ED8BEF1004F08BF5FEABC
:1005F400500E50F1000041EB045170BD06F000466E
:1006040046EA010140EA020081EA0301B4EB5C041A
:10061400C2BFD4EB0C0541EA045170BD41F4801112
:100624004FF0000E013C00F3AB8014F1360FDEBF37
:10063400002001F0004170BDC4F10004203C35DA13
:100644000C341BDC04F11404C4F1200500FA05F396
:1006540020FA04F001FA05F240EA020001F0004237
:1006640021F0004110EBD37021FA04F642EB0601AD
:100674005EEA430E08BF20EAD37070BDC4F10C04D7
:10068400C4F1200500FA04F320FA05F001FA04F29B
:1006940040EA020001F0004110EBD37041F1000187
:1006A4005EEA430E08BF20EAD37070BDC4F1200592
:1006B40000FA05F24EEA020E20FA04F301FA05F2FA
:1006C40043EA020321FA04F001F0004121FA04F2A2
:1006D40020EA020000EBD3705EEA430E08BF20EA72
:1006E400D37070BD94F0000F0FD101F000464000AC
:1006F40041EB010111F4801F08BF013CF7D041EA2E
:10070400060195F0000F18BF704703F00046520031
:1007140043EB030313F4801F08BF013DF7D043EA02
:100724000603704794EA0C0F0CEA135518BF95EAB8
:100734000C0F0CD050EA410618BF52EA4306D1D13F
:1007440081EA030101F000414FF0000070BD50EA5E
:10075400410606BF1046194652EA430619D094EAE8
:100764000C0F02D150EA013613D195EA0C0F05D1D2
:1007740052EA03361CBF104619460AD181EA030126
:1007840001F0004141F0FE4141F470014FF00000DE
:1007940070BD41F0FE4141F4780170BD70B54FF079
:1007A400FF0C4CF4E06C1CEA11541DBF1CEA1355F9
:1007B40094EA0C0F95EA0C0F00F0A7F8A4EB0504DB
:1007C40081EA030E52EA03354FEA013100F08880D2
:1007D4004FEA03334FF0805545EA131343EA12639B
:1007E4004FEA022245EA111545EA10654FEA002650
:1007F4000EF000419D4208BF964244F1FD0404F509
:10080400407402D25B084FEA3202B61A65EB030564
:100814005B084FEA32024FF480104FF4002CB6EB21
:10082400020E75EB030E22BFB61A754640EA0C00A1
:100834005B084FEA3202B6EB020E75EB030E22BFE1
:10084400B61A754640EA5C005B084FEA3202B6EB22
:10085400020E75EB030E22BFB61A754640EA9C00E1
:100864005B084FEA3202B6EB020E75EB030E22BFB1
:10087400B61A754640EADC0055EA060E18D04FEA6F
:10088400051545EA16754FEA06164FEAC30343EA0F
:1008940052734FEAC2025FEA1C1CC0D111F4801FDC
:1008A4000BD141EA00014FF000004FF0004CB6E7D5
:1008B40011F4801F04BF01430020B4F1FD0C88BF74
:1008C400BCF5E06F3FF6AFAEB5EB030C04BFB6EB7F
:1008D400020C5FEA500C50F1000041EB045170BD72
:1008E4000EF0004E4EEA113114EB5C04C2BFD4EB9F
:1008F4000C0541EA045170BD41F480114FF0000E23
:10090400013C90E645EA060E8DE60CEA135594EA9E
:100914000C0F08BF95EA0C0F3FF43BAF94EA0C0FA1
:100924000AD150EA01347FF434AF95EA0C0F7FF416
:1009340025AF104619462CE795EA0C0F06D152EA6A
:1009440003353FF4FDAE1046194622E750EA41064E
:1009540018BF52EA43067FF4C5AE50EA41047FF45F
:100964000DAF52EA43057FF4EBAE12E74A0011D211
:1009740012F5001211D20DD56FF47873B3EB6252F5
:100984000ED44FEAC12343F0004343EA505323FA01
:1009940002F070474FF00000704750EA013002D176
:1009A4004FF0FF3070474FF00000704780B582B0C1
:1009B40000AF03460A46FB711346BB80FB79002B4C
:1009C40020D10021002001F071F90421032001F05D
:1009D4006DF902220921002000F0A6FD0722092159
:1009E400002000F0C9FF02220A21002000F09CFD33
:1009F40007220A21002000F0BFFFBB88184601F03F
:100A04008DFA00E000BF00BF0837BD4680BD80B549
:100A140082B000AF03460A46FB711346BB71BB7933
:100A2400002B02D001F026FB01E001F033FB00BFF4
:100A34000837BD4680BD80B584B000AF396011462B
:100A44001A460346FB710B46BB7113467B710023A8
:100A5400FB73FB79022B0DD87B79002B05D0BB7976
:100A64001946386801F0C8FA05E001F0EBFA0346CC
:100A7400FB7300E000BFFB7B18461037BD4680BD0A
:100A840080B582B000AF03463960FB71FB79002B5F
:100A94000ED1052001F074F800220021252001F078
:100AA4008BF8252001F04CF8386801F003FB00E0D6
:100AB40000BF00BF0837BD4680BD80B500AF01222E
:100AC4000121002000F030FD01220221002000F06D
:100AD4002BFD01220321002000F026FD01220B2121
:100AE400002000F021FD01220C21002000F01CFD5B
:100AF40001220821002000F017FD00BF80BD80B551
:100B040082B000AF03460A46FB711346BB71FB7902
:100B1400002B02D0012B3CD077E0BB79022B26D0EE
:100B2400022B34DC002B02D0012B10D02FE0012249
:100B34000121002000F04CFE00220221002000F0E0
:100B440047FE01220321002000F042FE20E00022A3
:100B54000121002000F03CFE01220221002000F0CF
:100B640037FE01220321002000F032FE10E00022B3
:100B74000121002000F02CFE00220221002000F0C0
:100B840027FE00220321002000F022FE00E000BF27
:100B94003BE0BB79022B26D0022B34DC002B02D0A5
:100BA400012B10D02FE001220B21002000F010FEB9
:100BB40000220C21002000F00BFE0122082100205D
:100BC40000F006FE20E000220B21002000F000FED1
:100BD40001220C21002000F0FBFD0122082100204D
:100BE40000F0F6FD10E000220B21002000F0F0FDE3
:100BF40000220C21002000F0EBFD0022082100203F
:100C040000F0E6FD00E000BF00BF00BF0837BD46AE
:100C140080BD90B583B000AF0446084611461A461D
:100C24002346FB710346BB710B467B7113463B7134
:100C3400FB791946002001F039F80E21032001F058
:100C440035F8B979FB790022184600F06DFCB979C2
:100C54007A79FB79184600F0DFFC052000F090FF5C
:100C6400BB79042B0FD8BB790633DBB2184600F0EE
:100C740067FFBB790633DBB297F82020397F18462B
:100C840000F09AFF1AE0BB79092B0AD8172000F06C
:100C940057FF97F820203B7F1946172000F08CFF60
:100CA4000CE0BB790F2B09D8282000F049FF97F8F6
:100CB40020203B7F1946282000F07EFFBB79184690
:100CC40000F0C4F83A79BB791146184600F0D6F81A
:100CD400FB79052B04D1FB790233FB71FB7900E02E
:100CE400FB79BA791946104600F00EF9BB79B96957
:100CF400184600F059FA00BF0C37BD4690BD80B5C8
:100D040082B000AF0346FB710B46BB7113467B7187
:100D1400FB791946002000F0C9FFB979FB7900225C
:100D2400184600F001FCB9797A79FB79184600F08D
:100D340073FC00BF0837BD4680BD90B583B000AFDB
:100D44000446084611461A462346FB710346BB7106
:100D54000B467B7113463B71FB791946002000F06A
:100D6400A5FF0E21032000F0A1FFB979FB79002231
:100D7400184600F0D9FBB9797A79FB79184600F066
:100D84004BFC052000F0FCFEBB79042B0FD8BB798B
:100D94000633DBB2184600F0D3FEBB790633DBB270
:100DA40097F82020397F184600F006FF1AE0BB7937
:100DB400092B0AD8172000F0C3FE97F820203B7FA8
:100DC4001946172000F0F8FE0CE0BB790F2B09D868
:100DD400282000F0B5FE97F820203B7F19462820F4
:100DE40000F0EAFEBB79184600F030F83A79BB7996
:100DF4001146184600F042F8FB79052B04D1FB7923
:100E04000233FB71FB7900E0FB79BA79194610468D
:100E140000F07AF8BB79B969184600F0C5F900BF4B
:100E24000C37BD4690BD80B582B000AF03460A467C
:100E3400FB711346BB71BA79FB791146184600F071
:100E44005BFC034618460837BD4680BD80B483B0BA
:100E540000AF0346FB71084B1B68FA79012101FAC4
:100E640002F21146044A0B43136000BF0C37BD461F
:100E74005DF8047B704700BF003C014080B483B040
:100E840000AF03460A46FB711346BB71BB79022BC4
:100E94001CD0022B2FDC002B02D0012B0BD02AE01C
:100EA400184B9B68FA79012101FA02F21146154A9E
:100EB4000B43936020E0134BDB68FA79012101FABC
:100EC40002F211460F4A0B43D36015E00D4B9B68A9
:100ED400FA79012101FA02F211460A4A0B4393609E
:100EE400084BDB68FA79012101FA02F21146054A3E
:100EF4000B43D36000E000BF00BF0C37BD465DF874
:100F0400047B7047003C014080B485B000AF0346C9
:100F14000A46FB711346BB71FB799B08FB73FB7993
:100F240003F00303BB73FB7B032B00F2338101A2A9
:100F340052F823F0490F0008DD0F00087110000873
:100F440005110008BB7B032B44D801A252F823F0FF
:100F5400650F00087F0F00089D0F0008BB0F0008F5
:100F6400904B1B688F4A23F00F0313608D4B1A6854
:100F7400BB798C4913430B602DE08A4B1B68894A6B
:100F840023F0F0031360874B1B68BA7912011146F2
:100F9400844A0B4313601EE0824B1B68814A23F48E
:100FA400706313607F4B1B68BA79120211467D4A45
:100FB4000B4313600FE07B4B1B687A4A23F47043A6
:100FC4001360784B1B68BA7912031146754A0B43B8
:100FD400136000E000BFDEE0BB7B032B44D801A21A
:100FE40052F823F0F90F000813100008311000081C
:100FF4004F1000086B4B5B686A4A23F00F03536081
:10100400684B5A68BB79674913434B602DE0654BC5
:101014005B68644A23F0F0035360624B5B68BA79FF
:10102400120111465F4A0B4353601EE05D4B5B683F
:101034005C4A23F4706353605A4B5B68BA791202BA
:101044001146584A0B4353600FE0564B5B68554AB0
:1010540023F470435360534B5B68BA79120311460F
:10106400504A0B43536000E000BF94E0BB7B032B6A
:1010740044D801A252F823F08D100008A7100008EC
:10108400C5100008E3100008464B9B68454A23F04E
:101094000F039360434B9A68BB79424913438B60B7
:1010A4002DE0404B9B683F4A23F0F00393603D4B97
:1010B4009B68BA79120111463A4A0B4393601EE0C9
:1010C400384B9B68374A23F470639360354B9B68B5
:1010D400BA7912021146334A0B4393600FE0314B45
:1010E4009B68304A23F4704393602E4B9B68BA7913
:1010F400120311462B4A0B43936000E000BF4AE001
:10110400BB7B032B44D801A252F823F02111000821
:101114003B1100085911000877110008214BDB68C6
:10112400204A23F00F03D3601E4BDA68BB791D49B4
:101134001343CB602DE01B4BDB681A4A23F0F0030A
:10114400D360184BDB68BA7912011146154A0B4378
:10115400D3601EE0134BDB68124A23F47063D36040
:10116400104BDB68BA79120211460E4A0B43D36066
:101174000FE00C4BDB680B4A23F47043D360094B3C
:10118400DB68BA7912031146064A0B43D36000E0C8
:1011940000BF00E000BF00BF1437BD465DF8047B0C
:1011A400704700BF0838014080B483B000AF0346E5
:1011B4003960FB71FB790F2B62D801A252F823F03E
:1011C400051200080D120008151200081D1200086F
:1011D400251200082D120008351200083D120008DF
:1011E400451200084D120008551200085D1200084F
:1011F400651200086D120008751200087D120008BF
:10120400234A3B6813603CE0224A3B68136038E0A1
:10121400214A3B68136034E0204A3B68136030E0A5
:101224001F4A3B6813602CE01E4A3B68136028E0A9
:101234001D4A3B68136024E01C4A3B68136020E0AD
:101244001B4A3B6813601CE01A4A3B68136018E0B1
:10125400194A3B68136014E0184A3B68136010E0B5
:10126400174A3B6813600CE0164A3B68136008E0B9
:10127400154A3B68136004E0144A3B68136000E0BD
:1012840000BF00BF0C37BD465DF8047B704700BF4C
:101294001C00002020000020240000202800002042
:1012A4002C000020300000203400002038000020F2
:1012B4003C000020400000204400002048000020A2
:1012C4004C00002050000020540000205800002052
:1012D40080B500AF054B1B689847054B5B69044A12
:1012E40043F00103536100BF80BD00BF1C00002018
:1012F400003C014080B500AF054B1B689847054B87
:101304005B69044A43F00203536100BF80BD00BF20
:1013140020000020003C014080B500AF054B1B6855
:101324009847054B5B69044A43F00403536100BFCB
:1013340080BD00BF24000020003C014080B500AF08
:10134400054B1B689847054B5B69044A43F0080347
:10135400536100BF80BD00BF28000020003C014055
:1013640080B500AF054B1B689847054B5B69044A81
:1013740043F01003536100BF80BD00BF2C00002068
:10138400003C014080B500AF284B5B6903F02003AB
:10139400002B09D0264B1B689847244B5B69234AD2
:1013A40043F0200353613EE0204B5B6903F04003AC
:1013B400002B09D01F4B1B6898471C4B5B691B4AC9
:1013C40043F0400353612EE0184B5B6903F0800344
:1013D400002B09D0184B1B689847144B5B69134AC0
:1013E40043F0800353611EE0104B5B6903F4807388
:1013F400002B09D0114B1B6898470C4B5B690B4AB7
:1014040043F4807353610EE0084B5B6903F400738B
:10141400002B08D00A4B1B689847044B5B69034AAE
:1014240043F40073536100BF80BD00BF003C014022
:101434003000002034000020380000203C00002050
:101444004000002080B500AF304B5B6903F480633B
:10145400002B09D02E4B1B6898472C4B5B692B4AF9
:1014640043F4806353614EE0284B5B6903F40063EB
:10147400002B09D0274B1B689847244B5B69234AF0
:1014840043F4006353613EE0204B5B6903F48053F3
:10149400002B09D0204B1B6898471C4B5B691B4AE7
:1014A40043F4805353612EE0184B5B6903F40053FB
:1014B400002B09D0194B1B689847144B5B69134ADE
:1014C40043F4005353611EE0104B5B6903F4804303
:1014D400002B09D0124B1B6898470C4B5B690B4AD5
:1014E40043F4804353610EE0084B5B6903F400430B
:1014F400002B08D00B4B1B689847044B5B69034ACD
:1015040043F40043536100BF80BD00BF003C014071
:1015140044000020480000204C000020500000201F
:10152400540000205800002080B483B000AF03466C
:10153400FB710B46BB7113467B71FB79052B57D8A6
:1015440001A252F823F000BF651500087D150008BC
:1015540095150008AD150008C5150008DD1500082F
:10156400274B1B687979BA79520001FA02F21146C5
:10157400234A0B4313603CE0224B1B687979BA7908
:10158400520001FA02F211461E4A0B43136030E086
:101594001D4B1B687979BA79520001FA02F211469F
:1015A400194A0B43136024E0184B1B687979BA7904
:1015B400520001FA02F21146144A0B43136018E078
:1015C400134B1B687979BA79520001FA02F2114679
:1015D4000F4A0B4313600CE00E4B1B687979BA7900
:1015E400520001FA02F211460A4A0B43136000E06A
:1015F40000BF00BF0C37BD465DF8047B704700BFD9
:10160400000002400004024000080240000C0240B6
:1016140000100240001C024080B485B000AF0346B5
:10162400B9607A60FB73FB7B052B51D801A252F899
:1016340023F000BF51160008671600087D16000845
:1016440093160008A9160008BF160008244BDA6890
:10165400BB685B00796801FA03F321491343CB604B
:1016640037E0204BDA68BB685B00796801FA03F362
:101674001C491343CB602CE01B4BDA68BB685B004E
:10168400796801FA03F318491343CB6021E0174B3F
:10169400DA68BB685B00796801FA03F31349134302
:1016A400CB6016E0124BDA68BB685B00796801FA1C
:1016B40003F30F491343CB600BE00E4BDA68BB68AE
:1016C4005B00796801FA03F30A491343CB6000E035
:1016D40000BF00BF1437BD465DF8047B704700BFF0
:1016E400000002400004024000080240000C0240D6
:1016F40000100240001C024080B485B000AF0346D5
:101704000A46FB711346BB710023FB73FB79052B5F
:101714004AD801A252F823F03517000849170008E7
:101724005D1700087117000885170008991700084D
:10173400214B1A69BB7922FA03F3DBB203F00103EC
:10174400FB7332E01D4B1A69BB7922FA03F3DBB257
:1017540003F00103FB7328E0194B1A69BB7922FAE1
:1017640003F3DBB203F00103FB731EE0154B1A69AC
:10177400BB7922FA03F3DBB203F00103FB7314E039
:10178400114B1A69BB7922FA03F3DBB203F00103AC
:10179400FB730AE00D4B1A69BB7922FA03F3DBB23F
:1017A40003F00103FB7300E000BFFB7B1846143712
:1017B400BD465DF8047B704700000240000402400F
:1017C40000080240000C024000100240001C0240CD
:1017D40080B483B000AF0346FB710B46BB71134664
:1017E4007B717B79012B55D1FB79052B00F2AC8001
:1017F40001A252F823F000BF151800082B180008A6
:1018040041180008571800086D18000883180008CC
:10181400524B5B69BA79012101FA02F211464F4A2F
:101824000B43536193E04E4B5B69BA79012101FA92
:1018340002F211464A4A0B43536188E0494B1B6844
:10184400BA79012101FA02F21146464A0B431360A8
:101854007DE0454B5B69BA79012101FA02F2114638
:10186400414A0B43536172E0404B5B69BA790121F1
:1018740001FA02F211463D4A0B43536167E03C4BC7
:101884005B69BA79012101FA02F21146384A0B4325
:1018940053615CE0FB79052B58D801A252F823F080
:1018A400BD180008D5180008ED180008051900082F
:1018B4001D19000835190008284B5B69BA79012104
:1018C40001FA02F2D2431146244A0B4053613EE02E
:1018D400234B5B69BA79012101FA02F2D243114622
:1018E4001F4A0B40536132E0224B5B69BA790121F4
:1018F40001FA02F2D24311461E4A0B40536126E01C
:10190400194B5B69BA79012101FA02F2D2431146FB
:10191400154A0B4053611AE0144B5B69BA790121F3
:1019240001FA02F2D2431146104A0B4053610EE011
:101934000F4B5B69BA79012101FA02F2D2431146D5
:101944000B4A0B40536102E000BF00E000BF00BF40
:101954000C37BD465DF8047B704700BF00000240B1
:101964000004024014080240000C0240001002402F
:10197400001C02400008024080B483B000AF03465C
:10198400FB710B46BB7113467B71BB79072B5BD88C
:10199400FB79052B00F2BE8001A252F823F000BFB0
:1019A400BD190008D5190008ED190008051A00082A
:1019B4001D1A0008351A00085B4B1B6A7979BA793D
:1019C400920001FA02F21146574A0B431362A4E053
:1019D400564B1B6A7979BA79920001FA02F21146E0
:1019E400524A0B43136298E0514B1B6A7979BA79D6
:1019F400920001FA02F211464D4A0B4313628CE045
:101A04004C4B1B6A7979BA79920001FA02F21146B9
:101A1400484A0B43136280E0474B1B6A7979BA79D1
:101A2400920001FA02F21146434A0B43136274E036
:101A3400424B1B6A7979BA79920001FA02F2114693
:101A44003E4A0B43136268E0FB79052B64D801A27C
:101A540052F823F0711A00088D1A0008A91A000818
:101A6400C51A0008E11A0008FD1A00082E4B5B6A2B
:101A74007979BA7902F00702920001FA02F211466A
:101A8400294A0B43536248E0284B5B6A7979BA7957
:101A940002F00702920001FA02F21146234A0B43B4
:101AA40053623AE0224B5B6A7979BA7902F0070211
:101AB400920001FA02F211461D4A0B4353622CE0D4
:101AC4001C4B5B6A7979BA7902F00702920001FA39
:101AD40002F21146174A0B4353621EE0164B5B6A2F
:101AE4007979BA7902F00702920001FA02F21146FA
:101AF400114A0B43536210E0104B5B6A7979BA794F
:101B040002F00702920001FA02F211460B4A0B435B
:101B1400536202E000BF00E000BF00BF0C37BD46C7
:101B24005DF8047B704700BF0000024000040240DF
:101B340000080240000C024000100240001C024059
:101B440090B482B000AF0346FB710C4AFB795B0989
:101B5400D8B2034652F82330FA7902F01F02012169
:101B640001FA02F21446054A0146234342F82130A1
:101B740000BF0837BD4690BC704700BF00E100E0DD
:101B840080B483B000AF0346FB71FB791B0243F0C2
:101B9400BF6343F400331A46054B1A60054A044BED
:101BA4001B68136000BF0C37BD465DF8047B7047AB
:101BB4005C0000200CED00E080B485B000AF03466B
:101BC400FB710B46BB7113467B710023FB73214BE6
:101BD4001B68033B042B2ED801A252F823F000BF4C
:101BE400F91B0008FF1B0008111C0008231C000837
:101BF400351C0008BB79FB731DE0BB795B005AB24E
:101C040097F9053013435BB2FB7314E0BB799B0077
:101C14005AB297F9053013435BB2FB730BE0BB79FF
:101C2400DB005AB297F9053013435BB2FB7302E051
:101C34007B79FB7300BF0849FB79FA7B1201D2B2AE
:101C44000B4483F8002300BF1437BD465DF8047BC2
:101C5400704700BF5C00002000E100E080B400AFEA
:101C6400114B1B68104A23F4802313600E4B9B68AE
:101C74000D4A43F0010393600B4B1B680A4A43F47B
:101C840080331360084B1B68074A43F00103136059
:101C9400054B1B68044A43F08073136000BFBD46C4
:101CA4005DF8047B704700BF0038024080B483B005
:101CB40000AF03460A46FB711346BB71FB79032B45
:101CC40036D801A252F823F0DD1C0008F31C0008EA
:101CD400091D00081F1D0008194B1B6BBA7901214F
:101CE40001FA02F21146164A0B43136321E0144B26
:101CF4005B6BBA79012101FA02F21146104A0B43D7
:101D0400536316E00E4B1B6CBA79012101FA02F2FF
:101D140011460B4A0B4313640BE0094B5B6CBA7915
:101D2400012101FA02F21146054A0B43536400E013
:101D340000BF00BF0C37BD465DF8047B704700BF91
:101D44000038024080B500AF024B1B68984700BFC3
:101D540080BD00BF6000002080B500AF024B1B684F
:101D6400984700BF80BD00BF6400002080B500AF6D
:101D7400024B1B68984700BF80BD00BF680000206D
:101D840080B500AF024B1B68984700BF80BD00BF01
:101D94006C00002080B400AF054B1B68044A43F07C
:101DA4000403136000BFBD465DF8047B704700BFA9
:101DB40010E000E080B400AF054B1B68044A43F018
:101DC4000203136000BFBD465DF8047B704700BF8B
:101DD40010E000E080B483B000AF78600C4B0022C8
:101DE4009A600B4B5A687B684FF47A5101FB03F3FA
:101DF400013B074913434B60054B1B68044A43F0FE
:101E04000103136000BF0C37BD465DF8047B7047C7
:101E140010E000E080B400AF054B1B68DBB203F0B8
:101E24000103DBB21846BD465DF8047B704700BF72
:101E340010E000E080B483B000AF7860044A7B68AF
:101E4400136000BF0C37BD465DF8047B704700BFCC
:101E54007000002080B500AF024B1B68984700BF9C
:101E640080BD00BF7000002080B400AF4FF08043FD
:101E74001B6903F00103002B0DD0094B1B780133C0
:101E8400DAB2074B1A704FF080431B694FF080425F
:101E940023F00103136100BFBD465DF8047B704766
:101EA4007400002080B400AF0B4B1B6903F00103E6
:101EB400002B0BD0094B1B780133DAB2074B1A7095
:101EC400054B1B69044A23F00103136100BFBD469F
:101ED4005DF8047B704700BF0004004075000020DB
:101EE40080B400AF0B4B1B6903F00103002B0BD034
:101EF400094B1B780133DAB2074B1A70054B1B6987
:101F0400044A23F00103136100BFBD465DF8047B5E
:101F1400704700BF000800407600002080B487B0FE
:101F240000AF78607B681B01314AB2FBF3F307EE24
:101F3400903AF8EE677AC7ED057AD7ED057AFCEEAC
:101F4400E77A17EE903A7B827B8A07EE903AF8EEB6
:101F5400E77A97ED057A77EE677AC7ED037AD7EDDE
:101F6400037AB3EE007A67EE877AFCEEE77AC7ED80
:101F7400007A3B78FB727B8A1A01FB7A1A431D4B69
:101F84009A601C4BDB681B4A23F40043D360194B53
:101F9400DB68184A23F48053D360164BDB68154A78
:101FA40023F48063D360134B1B69124A23F48053D8
:101FB4001361104B1B690F4A23F4005313610D4B3B
:101FC400DB680C4A43F00803D3600A4BDB68094A18
:101FD40043F00403D360074BDB68064A43F0200355
:101FE400D36000BF1C37BD465DF8047B704700BF5B
:101FF4000024F4000010014080B485B000AF786084
:102004000B46FB700023FB730FE0FB7B7A681344E1
:102014001A780B4B5A6000BF094B1B6803F080030E
:10202400002BF9D0FB7B0133FB73FA7BFB789A42DC
:10203400EBD300BF00BF1437BD465DF8047B704787
:102044000010014080B483B000AF0023FB7100BFD7
:10205400074B1B6803F02003002BF9D0044B5B688B
:10206400FB71FB7918460C37BD465DF8047B70475D
:102074000010014080B400AF054BDB68044A43F410
:102084000053D36000BFBD465DF8047B704700BFBA
:102094000010014080B400AF054BDB68044A23F410
:1020A4000053D36000BFBD465DF8047B704700BF9A
:1020B4000010014080B483B000AF7860044A7B68AC
:1020C400136000BF0C37BD465DF8047B704700BF4A
:1020D4007800002080B500AF024B1B68984700BF12
:1020E40080BD00BF7800002080B582B000AF03231C
:1020F400FB71234B1B78002B0FD1224B00221A704B
:10210400FFF788FE0346002B03D14FF47A70FFF7E4
:1021140061FE1B4B01221A702EE0194B1B78012B18
:102124002AD1184B1B781846FEF7A4F94FF0000289
:10213400154BFEF709FA02460B46104619464FF0B6
:102144000002114BFEF72AFB02460B4610461946C5
:10215400FEF70CFC0346DBB2BB71F91D012301221F
:102164000020FEF768FCB91D012301220020FEF7C0
:1021740062FC034B00221A7000BF0837BD4680BDC5
:10218400810000207E0000200000244080B582B041
:1021940000AF0223FB71234B1B78002B0FD1224B82
:1021A40000221A70FFF736FE0346002B03D14FF4CA
:1021B4007A70FFF70FFE1B4B01221A702EE0194BA9
:1021C4001B78012B2AD1184B1B781846FEF752F9BD
:1021D4004FF00002154BFEF7B7F902460B461046C6
:1021E40019464FF00002114BFEF7D8FA02460B468F
:1021F40010461946FEF7BAFB0346DBB2BB71F91D64
:10220400012301220020FEF716FCB91D012301223F
:102214000020FEF710FC034B00221A7000BF0837A1
:10222400BD4680BD800000207D00002000002440C9
:1022340080B582B000AF0123FB71234B1B78002BC8
:102244000FD1224B00221A70FFF7E4FD0346002B46
:1022540003D14FF47A70FFF7BDFD1B4B01221A70B6
:102264002EE0194B1B78012B2AD1184B1B781846EA
:10227400FEF700F94FF00002154BFEF765F9024630
:102284000B46104619464FF00002114BFEF786FA32
:1022940002460B4610461946FEF768FB0346DBB2BE
:1022A400BB71F91D012301220020FEF7C4FBB91DF7
:1022B400012301220020FEF7BEFB034B00221A700B
:1022C40000BF0837BD4680BD7F0000207C00002091
:1022D4000000244080B500AF0023012205490020FE
:1022E400FEF7A9FB0346022B02D1034B01221A700D
:1022F40000BF80BD820000208400002080B400AFB5
:10230400034B02221A7000BFBD465DF8047B704780
:102314008400002080B400AF034B02221A7000BF77
:10232400BD465DF8047B70478300002080B400AF95
:10233400034B01221A7000BFBD465DF8047B704751
:102344008300002080B400AF114B1B78012B05D112
:10235400104B1B780133DAB20E4B1A700E4B1B78FC
:10236400012B05D10D4B1B780133DAB20B4B1A70DC
:102374000B4B1B78012B05D10A4B1B780133DAB2C6
:10238400084B1A7000BFBD465DF8047B704700BF60
:102394007F0000207C000020800000207D000020C1
:1023A400810000207E00002080B584B004AFFFF7D8
:1023B40055FC0023029300230193554B0093012302
:1023C400012200210020FEF7B8FC00230293002321
:1023D4000193504B00930023012204210020FEF7B7
:1023E40018FC012206210020FEF789FC01220721A6
:1023F4000020FEF784FC0023029300230193464B44
:1024040000930023012205210020FEF702FC002393
:10241400029300230193414B0093002301220621E0
:102424000120FEF7F6FB00230293002301933C4BAB
:1024340000930023012207210120FEF7EAFB002379
:10244400029300230193374B0093002301220821B8
:102454000120FEF7DEFBFEF730FBFFF79BFCFFF7E6
:10246400A9FC3148FFF7E6FC4FF416510020FEF7B3
:102474009DFA01210020FEF7CAFA2C490020FEF73C
:10248400FFFA2B4B1B78012B0BD106210020FEF702
:10249400CAFC0346012B04D100210020FEF72FFBC8
:1024A40024E0234B1B78022B0BD107210020FEF7DD
:1024B400BAFC0346012B04D101210020FEF71FFBC7
:1024C40014E006210020FEF7AEFC0346002B06D0E4
:1024D40007210020FEF7A7FC0346002B06D1144B6E
:1024E40000221A7002210020FEF709FB114B1B7811
:1024F400012B04D100210120FEF701FBC1E70D4BA4
:102504001B78022BBDD101210120FEF7F8FAB8E7B0
:10251400312300081923000801230008352200088C
:1025240091210008ED20000849230008D922000861
:10253400830000208400002080B400AFFEE780B454
:1025440000AFFEE780B400AFFEE780B400AFFEE763
:1025540080B400AFFEE780B400AF00BFBD465DF8B5
:10256400047B704780B400AF00BFBD465DF8047BB8
:10257400704780B400AF00BFBD465DF8047B704770
:1025840080B400AF064BD3F88830054A43F4700397
:10259400C2F8883000BFBD465DF8047B704700BFB9
:1025A40000ED00E0DFF834D00D480E490E4A002358
:1025B40002E0D458C4500433C4188C42F9D30B4AF3
:1025C4000B4C002301E013600432A242FBD3FFF75B
:1025D400D7FF00F011F8FFF7E7FE70470000012075
:1025E40000000020000000206426000800000020F5
:1025F40088000020FEE7000070B50D4D0D4C641BF3
:10260400A4100026A64209D10B4D0C4C00F018F87A
:10261400641BA4100026A64205D170BD55F8043BE6
:1026240098470136EEE755F8043B98470136F2E740
:102634005C2600085C2600085C260008602600086A
:10264400F8B500BFF8BC08BC9E467047F8B500BF9B
:08265400F8BC08BC9E4670476B
:04265C00B9010008B8
:0426600095010008D8
:04000005080025A921
:00000001FF
