:020000040800F2
:1000000000000120891F00081D1F0008231F000891
:10001000291F00082F1F0008351F000800000000DE
:100020000000000000000000000000003B1F00086E
:10003000491F000800000000571F0008D91F0008D2
:10004000D91F0008D91F0008D91F0008D91F0008B0
:10005000D91F0008D91F00082D0E0008510E0008F6
:10006000750E0008990E0008BD0E0008D91F000883
:10007000D91F0008D91F0008D91F0008D91F000880
:10008000D91F0008D91F0008D91F00080000000070
:10009000000000000000000000000000E10E000869
:1000A000D91F0008D91F0008D91F0008D91F000850
:1000B000F11800082D19000869190008D91F000857
:1000C000D91F0008D91F0008D91F0008A11800086F
:1000D000B51800085D1B0008D91F000800000000CB
:1000E000A10F0008D91F0008D91F00080000000058
:1000F000000000000000000000000000D91F000800
:1001000000000000D91F0008D91F0008C918000806
:1001100000000000000000000000000000000000DF
:10012000D91F0008D91F0008D91F0008D91F0008CF
:10013000D91F0008000000000000000000000000BF
:10014000000000000000000000000000D91F0008AF
:10015000D91F0008D91F0008D91F0008D91F00089F
:10016000D91F0008D91F000800000000000000008F
:10017000000000000000000000000000000000007F
:1001800000000000D91F000800000000000000006F
:04019000DD1800086E
:1001940010B5054C237833B9044B13B10448AFF3BD
:1001A40000800123237010BD040000200000000023
:1001B400DC20000808B5034B1BB103490348AFF327
:1001C400008008BD0000000008000020DC200008BA
:1001D40080B582B000AF03460A46FB711346BB806C
:1001E400FB79002B20D10021002001F00BFB04211E
:1001F400032001F007FB02220921002000F040FF48
:1002040007220921002001F063F902220A210020BB
:1002140000F036FF07220A21002001F059F9BB88BB
:10022400184601F0BDFB00E000BF00BF0837BD4623
:1002340080BD80B582B000AF03460A46FB71134609
:10024400BB71BB79002B02D001F056FC01E001F038
:1002540063FC00BF0837BD4680BD80B584B000AFE5
:10026400396011461A460346FB710B46BB711346AF
:100274007B710023FB73FB79022B0DD87B79002B58
:1002840005D0BB791946386801F0F8FB05E001F0A8
:100294001BFC0346FB7300E000BFFB7B18461037D2
:1002A400BD4680BD80B582B000AF03463960FB71A6
:1002B400FB79002B0ED1052001F00EFA002200215B
:1002C400252001F025FA252001F0E6F9386801F02F
:1002D40033FC00E000BF00BF0837BD4680BD80B5D9
:1002E40082B000AF0121002001F08CFA0122052127
:1002F400012000F0C5FE01220621012000F0C0FE0D
:1003040001220721012000F0BBFE01220821012067
:1003140000F0B6FE01220521012001F005F80122BA
:100324000621012001F000F801220721012000F03C
:10033400FBFF01220821012000F0F6FF00220C211E
:10034400012000F09DFE01220C21012000F010FF8D
:1003540000220D21012000F093FE01220D21012035
:1003640000F006FF00220E21012000F089FE012288
:100374000E21012000F0FCFE00220F21012000F0DC
:100384007FFE01220F21012000F0F2FE0023BB7149
:100394003AE0BB790533DBB201221946012000F0B3
:1003A4006FFEBB790533DBB200221946012000F051
:1003B400BBFF0023FB7119E0FB790C33DBB2194658
:1003C400012000F045FF0346002B0CD1BB799B00B4
:1003D400DAB2FB791344DBB20133DBB2184600F026
:1003E4001BF8034614E0FB790133FB71FB79032B03
:1003F400E2D9BB790533DBB201221946012000F0B2
:1004040093FFBB790133BB71BB79032BC1D9BDE722
:1004140018460837BD4680BD80B485B000AF03469A
:10042400FB710023FB73FB79013B0F2B52D801A214
:1004340052F823F0790400087F04000885040008BA
:100444008B04000891040008970400089D04000828
:10045400A3040008A9040008AF040008B5040008B8
:10046400BB040008C1040008C7040008CD04000848
:10047400D30400080723FB732FE00823FB732CE04D
:100484000923FB7329E02523FB7326E00423FB7374
:1004940023E00523FB7320E00623FB731DE02A23DE
:1004A400FB731AE00123FB7317E00223FB7314E0D0
:1004B4000323FB7311E02D23FB730EE00D23FB7369
:1004C4000BE00023FB7308E03D23FB7305E02B23C3
:1004D400FB7302E0FB79FB7300BFFB7B1846143708
:1004E400BD465DF8047B704780B500AF0021002055
:1004F40001F088F901220B21002000F0C1FD012246
:100504000821002000F0BCFD142000F02BFA012289
:100514000421002000F0B4FD01220521002000F098
:10052400AFFD01220621002000F0AAFD01220721CF
:10053400002000F0A5FD332000F00EF8322000F07A
:100544000BF8282000F008F80C2000F005F8012032
:1005540000F002F800BF80BD80B582B000AF034652
:10056400FB7100220B21002000F0DEFE012000F0D0
:10057400F9F901220821002000F0D6FE012000F044
:10058400F1F9FB791B09DBB203F00103DBB21A4674
:100594000421002000F0C8FEFB795B09DBB203F004
:1005A4000103DBB21A460521002000F0BDFEFB79F1
:1005B4009B09DBB203F00103DBB21A4606210020DB
:1005C40000F0B2FEFB79DB09DBB21A4607210020FA
:1005D40000F0AAFE012000F0C5F900220821002045
:1005E40000F0A2FE012000F0BDF901220821002044
:1005F40000F09AFE012000F0B5F9FB7903F0010345
:10060400DBB21A460421002000F08EFEFB795B0861
:10061400DBB203F00103DBB21A460521002000F02F
:1006240083FEFB799B08DBB203F00103DBB21A46BD
:100634000621002000F078FEFB79DB08DBB203F032
:100644000103DBB21A460721002000F06DFE0120F1
:1006540000F088F900220821002000F065FE012046
:1006640000F080F900BF0837BD4680BD80B582B078
:1006740000AF0346FB7101220B21002000F054FE61
:10068400012000F06FF901220821002000F04CFE47
:10069400012000F067F9FB791B09DBB203F00103C9
:1006A400DBB21A460421002000F03EFEFB795B0910
:1006B400DBB203F00103DBB21A460521002000F08F
:1006C40033FEFB799B09DBB203F00103DBB21A466C
:1006D4000621002000F028FEFB79DB09DBB21A4674
:1006E4000721002000F020FE012000F03BF9002249
:1006F4000821002000F018FE012000F033F9012247
:100704000821002000F010FE012000F02BF9FB79F5
:1007140003F00103DBB21A460421002000F004FEBA
:10072400FB795B08DBB203F00103DBB21A46052157
:10073400002000F0F9FDFB799B08DBB203F0010314
:10074400DBB21A460621002000F0EEFDFB79DB083F
:10075400DBB203F00103DBB21A460721002000F0EC
:10076400E3FD012000F0FEF800220821002000F043
:10077400DBFD012000F0F6F800BF0837BD4680BD60
:1007840080B584B000AF78600023FB7309E0FB7B85
:100794007A6813441B781846FFF768FFFB7B013324
:1007A400FB73FB7B7A6813441B78002BEFD100BFEB
:1007B40000BF1037BD4680BD80B584B000AF03468E
:1007C4000A46FB711346BB71FB79032B19D801A2AE
:1007D40052F823F0E9070008EF070008F7070008BC
:1007E400FF070008BB79FB730BE0BB794033FB7355
:1007F40007E0BB791033FB7303E0BB795033FB7321
:1008040000BFFB7B63F07F03DBB21846FFF7A4FE57
:1008140000BF1037BD4680BD80B582B000AF03462F
:100824003A60FB710B46BB71BA79FB7911461846E5
:10083400FFF7C2FF3868FFF7A3FF00BF0837BD46C4
:1008440080BD80B586B000AF786007F108030A2246
:100854001946786801F0D7FB07F108031846FFF73B
:100864008FFF00BF1837BD4680BD80B500AF0120A3
:10087400FFF772FE00BF80BD90B583B000AF0446A1
:10088400084611461A462346FB710346BB710B46C4
:100894007B7113463B71FB791946002000F0B2FFCF
:1008A4000E21032000F0AEFFB979FB79002218462F
:1008B40000F0E6FBB9797A79FB79184600F058FC28
:1008C400052000F009FFBB79042B0FD8BB79063350
:1008D400DBB2184600F0E0FEBB790633DBB297F8D2
:1008E4002020397F184600F013FF1AE0BB79092B4A
:1008F4000AD8172000F0D0FE97F820203B7F194635
:10090400172000F005FF0CE0BB790F2B09D8282035
:1009140000F0C2FE97F820203B7F1946282000F003
:10092400F7FEBB79184600F03DF83A79BB791146D9
:10093400184600F04FF8FB79052B04D1FB790233FC
:10094400FB71FB7900E0FB79BA791946104600F097
:1009540087F8BB79B969184600F0D2F900BF0C37A3
:10096400BD4690BD80B485B000AF78600023FB60C5
:100974000CE00023BB6002E0BB680133BB60BB68D2
:10098400B3F5FA6FF8D3FB680133FB60FA687B6850
:100994009A42EED300BF00BF1437BD465DF8047B16
:1009A4007047000080B483B000AF0346FB71084B6E
:1009B4001B68FA79012101FA02F21146044A0B4339
:1009C400136000BF0C37BD465DF8047B704700BF61
:1009D400003C014080B483B000AF03460A46FB717B
:1009E4001346BB71BB79022B1CD0022B2FDC002BCE
:1009F40002D0012B0BD02AE0184B9B68FA79012115
:100A040001FA02F21146154A0B43936020E0134B9E
:100A1400DB68FA79012101FA02F211460F4A0B430D
:100A2400D36015E00D4B9B68FA79012101FA02F2BB
:100A340011460A4A0B439360084BDB68FA7901219B
:100A440001FA02F21146054A0B43D36000E000BFED
:100A540000BF0C37BD465DF8047B7047003C014085
:100A640080B485B000AF03460A46FB711346BB71E0
:100A7400FB799B08FB73FB7903F00303BB73FB7BDC
:100A8400032B00F2338101A252F823F0A10A0008DB
:100A9400350B0008C90B00085D0C0008BB7B032B59
:100AA40044D801A252F823F0BD0A0008D70A00086E
:100AB400F50A0008130B0008904B1B688F4A23F0BB
:100AC4000F0313608D4B1A68BB798C4913430B6079
:100AD4002DE08A4B1B68894A23F0F0031360874B8F
:100AE4001B68BA7912011146844A0B4313601EE055
:100AF400824B1B68814A23F4706313607F4B1B682D
:100B0400BA79120211467D4A0B4313600FE07B4B06
:100B14001B687A4A23F470431360784B1B68BA79D4
:100B240012031146754A0B43136000E000BFDEE078
:100B3400BB7B032B44D801A252F823F0510B0008CD
:100B44006B0B0008890B0008A70B00086B4B5B6854
:100B54006A4A23F00F035360684B5A68BB796749AC
:100B640013434B602DE0654B5B68644A23F0F0034C
:100B74005360624B5B68BA79120111465F4A0B43BA
:100B840053601EE05D4B5B685C4A23F47063536002
:100B94005A4B5B68BA7912021146584A0B435360A8
:100BA4000FE0564B5B68554A23F470435360534B34
:100BB4005B68BA7912031146504A0B43536000E054
:100BC40000BF94E0BB7B032B44D801A252F823F06E
:100BD400E50B0008FF0B00081D0C00083B0C000887
:100BE400464B9B68454A23F00F039360434B9A6836
:100BF400BB79424913438B602DE0404B9B683F4ACD
:100C040023F0F00393603D4B9B68BA7912011146BF
:100C14003A4A0B4393601EE0384B9B68374A23F4EF
:100C240070639360354B9B68BA7912021146334A5C
:100C34000B4393600FE0314B9B68304A23F47043BD
:100C440093602E4B9B68BA79120311462B4A0B43CF
:100C5400936000E000BF4AE0BB7B032B44D801A2B1
:100C640052F823F0790C0008930C0008B10C00082A
:100C7400CF0C0008214BDB68204A23F00F03D3601C
:100C84001E4BDA68BB791D491343CB602DE01B4B27
:100C9400DB681A4A23F0F003D360184BDB68BA7997
:100CA40012011146154A0B43D3601EE0134BDB6857
:100CB400124A23F47063D360104BDB68BA791202D2
:100CC40011460E4A0B43D3600FE00C4BDB680B4A12
:100CD40023F47043D360094BDB68BA7912031146DD
:100CE400064A0B43D36000E000BF00E000BF00BF32
:100CF4001437BD465DF8047B704700BF08380140D7
:100D040080B483B000AF03463960FB71FB790F2BCD
:100D140062D801A252F823F05D0D0008650D0008A9
:100D24006D0D0008750D00087D0D0008850D000887
:100D34008D0D0008950D00089D0D0008A50D0008F7
:100D4400AD0D0008B50D0008BD0D0008C50D000867
:100D5400CD0D0008D50D0008234A3B6813603CE024
:100D6400224A3B68136038E0214A3B68136034E050
:100D7400204A3B68136030E01F4A3B6813602CE054
:100D84001E4A3B68136028E01D4A3B68136024E058
:100D94001C4A3B68136020E01B4A3B6813601CE05C
:100DA4001A4A3B68136018E0194A3B68136014E060
:100DB400184A3B68136010E0174A3B6813600CE064
:100DC400164A3B68136008E0154A3B68136004E068
:100DD400144A3B68136000E000BF00BF0C37BD46F7
:100DE4005DF8047B704700BF200000202400002031
:100DF400280000202C0000203000002034000020B7
:100E0400380000203C000020400000204400002066
:100E1400480000204C000020500000205400002016
:100E2400580000205C00002080B500AF054B1B6813
:100E34009847054B5B69044A43F00103536100BFC3
:100E440080BD00BF20000020003C014080B500AF01
:100E5400054B1B689847054B5B69044A43F0020342
:100E6400536100BF80BD00BF24000020003C01404E
:100E740080B500AF054B1B689847054B5B69044A76
:100E840043F00403536100BF80BD00BF280000206D
:100E9400003C014080B500AF054B1B689847054BEB
:100EA4005B69044A43F00803536100BF80BD00BF7F
:100EB4002C000020003C014080B500AF054B1B68AE
:100EC4009847054B5B69044A43F01003536100BF24
:100ED40080BD00BF30000020003C014080B500AF61
:100EE400284B5B6903F02003002B09D0264B1B68B9
:100EF4009847244B5B69234A43F0200353613EE047
:100F0400204B5B6903F04003002B09D01F4B1B6887
:100F140098471C4B5B691B4A43F0400353612EE026
:100F2400184B5B6903F08003002B09D0184B1B6836
:100F34009847144B5B69134A43F0800353611EE0E6
:100F4400104B5B6903F48073002B09D0114B1B68B1
:100F540098470C4B5B690B4A43F4807353610EE072
:100F6400084B5B6903F40073002B08D00A4B1B6821
:100F74009847044B5B69034A43F40073536100BF11
:100F840080BD00BF003C0140340000203800002038
:100F94003C000020400000204400002080B500AF49
:100FA400304B5B6903F48063002B09D02E4B1B6824
:100FB40098472C4B5B692B4A43F4806353614EE0A2
:100FC400284B5B6903F40063002B09D0274B1B6893
:100FD4009847244B5B69234A43F4006353613EE022
:100FE400204B5B6903F48053002B09D0204B1B6812
:100FF40098471C4B5B691B4A43F4805353612EE0B2
:10100400184B5B6903F40053002B09D0194B1B6880
:101014009847144B5B69134A43F4005353611EE031
:10102400104B5B6903F48043002B09D0124B1B68FF
:1010340098470C4B5B690B4A43F4804353610EE0C1
:10104400084B5B6903F40043002B08D00B4B1B686F
:101054009847044B5B69034A43F40043536100BF60
:1010640080BD00BF003C0140480000204C0000202F
:101074005000002054000020580000205C00002094
:1010840080B483B000AF0346FB710B46BB711346BB
:101094007B71FB79052B57D801A252F823F000BFCE
:1010A400BD100008D5100008ED1000080511000857
:1010B4001D11000835110008274B1B687979BA798E
:1010C400520001FA02F21146234A0B4313603CE03A
:1010D400224B1B687979BA79520001FA02F211465F
:1010E4001E4A0B43136030E01D4B1B687979BA79B3
:1010F400520001FA02F21146194A0B43136024E02C
:10110400184B1B687979BA79520001FA02F2114638
:10111400144A0B43136018E0134B1B687979BA79AE
:10112400520001FA02F211460F4A0B4313600CE01D
:101134000E4B1B687979BA79520001FA02F2114612
:101144000A4A0B43136000E000BF00BF0C37BD46E2
:101154005DF8047B704700BF0000024000040240B9
:1011640000080240000C024000100240001C024033
:1011740080B485B000AF0346B9607A60FB73FB7B33
:10118400052B51D801A252F823F000BFA911000881
:10119400BF110008D5110008EB1100080112000866
:1011A40017120008244BDA68BB685B00796801FAFF
:1011B40003F321491343CB6037E0204BDA68BB6863
:1011C4005B00796801FA03F31C491343CB602CE0FC
:1011D4001B4BDA68BB685B00796801FA03F31849B2
:1011E4001343CB6021E0174BDA68BB685B00796876
:1011F40001FA03F313491343CB6016E0124BDA6888
:10120400BB685B00796801FA03F30F491343CB60B1
:101214000BE00E4BDA68BB685B00796801FA03F3F4
:101224000A491343CB6000E000BF00BF1437BD463A
:101234005DF8047B704700BF0000024000040240D8
:1012440000080240000C024000100240001C024052
:1012540080B485B000AF03460A46FB711346BB71E8
:101264000023FB73FB79052B4AD801A252F823F023
:101274008D120008A1120008B5120008C912000856
:10128400DD120008F1120008214B1A69BB7922FA19
:1012940003F3DBB203F00103FB7332E01D4B1A6965
:1012A400BB7922FA03F3DBB203F00103FB7328E0FA
:1012B400194B1A69BB7922FA03F3DBB203F0010379
:1012C400FB731EE0154B1A69BB7922FA03F3DBB2F8
:1012D40003F00103FB7314E0114B1A69BB7922FA82
:1012E40003F3DBB203F00103FB730AE00D4B1A694D
:1012F400BB7922FA03F3DBB203F00103FB7300E0D2
:1013040000BFFB7B18461437BD465DF8047B70476D
:10131400000002400004024000080240000C0240A9
:1013240000100240001C024080B483B000AF0346AA
:10133400FB710B46BB7113467B717B79012B55D135
:10134400FB79052B00F2AC8001A252F823F000BF18
:101354006D1300088313000899130008AF130008E5
:10136400C5130008DB130008524B5B69BA790121ED
:1013740001FA02F211464F4A0B43536193E04E4B7C
:101384005B69BA79012101FA02F211464A4A0B4318
:10139400536188E0494B1B68BA79012101FA02F2D2
:1013A4001146464A0B4313607DE0454B5B69BA79AD
:1013B400012101FA02F21146414A0B43536172E0E2
:1013C400404B5B69BA79012101FA02F211463D4AA8
:1013D4000B43536167E03C4B5B69BA79012101FA25
:1013E40002F21146384A0B4353615CE0FB79052B4A
:1013F40058D801A252F823F0151400082D1400083F
:10140400451400085D140008751400088D140008C4
:10141400284B5B69BA79012101FA02F2D2431146E1
:10142400244A0B4053613EE0234B5B69BA790121A6
:1014340001FA02F2D24311461F4A0B40536132E0D3
:10144400224B5B69BA79012101FA02F2D2431146B7
:101454001E4A0B40536126E0194B5B69BA7901219E
:1014640001FA02F2D2431146154A0B4053611AE0C5
:10147400144B5B69BA79012101FA02F2D243114695
:10148400104A0B4053610EE00F4B5B69BA7901219E
:1014940001FA02F2D24311460B4A0B40536102E0B7
:1014A40000BF00E000BF00BF0C37BD465DF8047B01
:1014B400704700BF000002400004024014080240CC
:1014C400000C024000100240001C024000080240D0
:1014D40080B483B000AF0346FB710B46BB71134667
:1014E4007B71BB79072B5BD8FB79052B00F2BE809F
:1014F40001A252F823F000BF151500082D150008AD
:10150400451500085D150008751500088D150008BF
:101514005B4B1B6A7979BA79920001FA02F211469F
:10152400574A0B431362A4E0564B1B6A7979BA7984
:10153400920001FA02F21146524A0B43136298E0F8
:10154400514B1B6A7979BA79920001FA02F2114679
:101554004D4A0B4313628CE04C4B1B6A7979BA7980
:10156400920001FA02F21146484A0B43136280E0EA
:10157400474B1B6A7979BA79920001FA02F2114653
:10158400434A0B43136274E0424B1B6A7979BA797C
:10159400920001FA02F211463E4A0B43136268E0DC
:1015A400FB79052B64D801A252F823F0C915000871
:1015B400E5150008011600081D1600083916000874
:1015C400551600082E4B5B6A7979BA7902F0070246
:1015D400920001FA02F21146294A0B43536248E091
:1015E400284B5B6A7979BA7902F00702920001FA12
:1015F40002F21146234A0B4353623AE0224B5B6AE0
:101604007979BA7902F00702920001FA02F21146DE
:101614001D4A0B4353622CE01C4B5B6A7979BA79FF
:1016240002F00702920001FA02F21146174A0B4334
:1016340053621EE0164B5B6A7979BA7902F00702AD
:10164400920001FA02F21146114A0B43536210E070
:10165400104B5B6A7979BA7902F00702920001FAB9
:1016640002F211460B4A0B43536202E000BF00E052
:1016740000BF00BF0C37BD465DF8047B704700BF58
:10168400000002400004024000080240000C024036
:1016940000100240001C024090B482B000AF034628
:1016A400FB710C4AFB795B09D8B2034652F823302C
:1016B400FA7902F01F02012101FA02F21446054AE6
:1016C4000146234342F8213000BF0837BD4690BC91
:1016D400704700BF00E100E080B483B000AF034670
:1016E400FB71FB791B0243F0BF6343F400331A46DA
:1016F400054B1A60054A044B1B68136000BF0C3786
:10170400BD465DF8047B7047600000200CED00E0EE
:1017140080B485B000AF0346FB710B46BB71134622
:101724007B710023FB73214B1B68033B042B2ED8D6
:1017340001A252F823F000BF511700085717000800
:10174400691700087B1700088D170008BB79FB7325
:101754001DE0BB795B005AB297F9053013435BB2C5
:10176400FB7314E0BB799B005AB297F9053013431D
:101774005BB2FB730BE0BB79DB005AB297F905301F
:1017840013435BB2FB7302E07B79FB7300BF084930
:10179400FB79FA7B1201D2B20B4483F8002300BF19
:1017A4001437BD465DF8047B704700BF600000201D
:1017B40000E100E080B400AF114B1B68104A23F431
:1017C400802313600E4B9B680D4A43F00103936022
:1017D4000B4B1B680A4A43F480331360084B1B68A5
:1017E400074A43F001031360054B1B68044A43F0A6
:1017F4008073136000BFBD465DF8047B704700BF73
:101804000038024080B483B000AF03460A46FB713F
:101814001346BB71FB79032B36D801A252F823F08F
:10182400351800084B1800086118000877180008DC
:10183400194B1B6BBA79012101FA02F21146164ABF
:101844000B43136321E0144B5B6BBA79012101FA5A
:1018540002F21146104A0B43536316E00E4B1B6C05
:10186400BA79012101FA02F211460B4A0B431364BF
:101874000BE0094B5B6CBA79012101FA02F21146C3
:10188400054A0B43536400E000BF00BF0C37BD465C
:101894005DF8047B704700BF0038024080B500AF9C
:1018A400024B1B68984700BF80BD00BF6400002046
:1018B40080B500AF024B1B68984700BF80BD00BFD6
:1018C4006800002080B500AF024B1B68984700BF3A
:1018D40080BD00BF6C00002080B500AF024B1B68C8
:1018E400984700BF80BD00BF7000002080B400AFE7
:1018F4004FF080431B6903F00103002B0DD0094B0B
:101904001B780133DAB2074B1A704FF080431B691E
:101914004FF0804223F00103136100BFBD465DF820
:10192400047B70477400002080B400AF0B4B1B692C
:1019340003F00103002B0BD0094B1B780133DAB2FF
:10194400074B1A70054B1B69044A23F0010313610A
:1019540000BFBD465DF8047B704700BF0004004033
:101964007500002080B400AF0B4B1B6903F001032A
:10197400002B0BD0094B1B780133DAB2074B1A70DA
:10198400054B1B69044A23F00103136100BFBD46E4
:101994005DF8047B704700BF00080040760000201B
:1019A40080B487B000AF78607B681B01314AB2FB1A
:1019B400F3F307EE903AF8EE677AC7ED057AD7EDC0
:1019C400057AFCEEE77A17EE903A7B827B8A07EE83
:1019D400903AF8EEE77A97ED057A77EE677AC7EDF5
:1019E400037AD7ED037AB3EE007A67EE877AFCEEDA
:1019F400E77AC7ED007A3B78FB727B8A1A01FB7A9F
:101A04001A431D4B9A601C4BDB681B4A23F40043AA
:101A1400D360194BDB68184A23F48053D360164B08
:101A2400DB68154A23F48063D360134B1B69124AA5
:101A340023F480531361104B1B690F4A23F40053A2
:101A440013610D4BDB680C4A43F00803D3600A4B67
:101A5400DB68094A43F00403D360074BDB68064A9A
:101A640043F02003D36000BF1C37BD465DF8047B00
:101A7400704700BF0024F4000010014080B485B01A
:101A840000AF78600B46FB700023FB730FE0FB7B19
:101A94007A6813441A780B4B5A6000BF094B1B68D1
:101AA40003F08003002BF9D0FB7B0133FB73FA7B3B
:101AB400FB789A42EBD300BF00BF1437BD465DF8F4
:101AC400047B70470010014080B483B000AF002352
:101AD400FB7100BF074B1B6803F02003002BF9D0F8
:101AE400044B5B68FB71FB7918460C37BD465DF807
:101AF400047B70470010014080B400AF054BDB68E5
:101B0400044A43F40053D36000BFBD465DF8047B30
:101B1400704700BF0010014080B400AF054BDB6884
:101B2400044A23F40053D36000BFBD465DF8047B30
:101B3400704700BF0010014080B483B000AF7860EC
:101B4400044A7B68136000BF0C37BD465DF8047B14
:101B5400704700BF7800002080B500AF024B1B68BF
:101B6400984700BF80BD00BF7800002080B500AF5B
:101B74000F4B9B68002B18D00E4A00210020FEF763
:101B84004BFE00210120FEF717FE094B9B68184607
:101B9400FEF757FE0848FEF7F3FD084A002100202F
:101BA400FEF73AFE064B03221A7000BF80BD00BF49
:101BB4007C000020F420000804210008082100080B
:101BC4008A00002080B500AF0F4B5B68002B18D053
:101BD4000E4A00210020FEF71FFE00210120FEF71F
:101BE400EBFD094B5B681846FEF72BFE0848FEF731
:101BF400C7FD084A00210020FEF70EFE064B022214
:101C04001A7000BF80BD00BF7C000020F4200008D3
:101C140004210008082100088A00002080B500AFD4
:101C24000F4B1B68002B18D00E4A00210020FEF732
:101C3400F3FD00210120FEF7BFFD094B1B68184688
:101C4400FEF7FFFD0848FEF79BFD084A002100202F
:101C5400FEF7E2FD064B01221A7000BF80BD00BFF3
:101C64007C000020F420000804210008082100085A
:101C74008A00002080B500AF164B1B78002B10D1D2
:101C8400154B00221A700023012214490020FEF78C
:101C9400E4FA03461A46104B1A700E4B01221A70CE
:101CA40016E00C4B1B78012B12D1002301220B49A7
:101CB4000020FEF7D2FA03461A46074B1B78DBB224
:101CC400013B1146064A42F82310024B00221A70C7
:101CD40000BF80BD890000208B0000208800002008
:101CE4007C00002080B582B000AF7860FEF7BDFDB7
:101CF4000C4A00210020FEF78FFD00210120FEF791
:101D04005BFD7868FEF79DFD0748FEF739FD4FF44B
:101D1400FA70FEF727FEFEF7A8FD00BF0837BD46A0
:101D240080BD00BF182100080421000880B586B0DA
:101D340000AF0346FB7100237B6100233B612A4A09
:101D440000210120FEF768FD00210120FEF734FD8B
:101D54000023FB60FEF7C3FA0346FB60FB683D2BE0
:101D640010D0F868FEF76DFD7A6913469B001344A2
:101D74005B001A46FB6813447B614FF4FA70FEF76C
:101D8400F1FDE5E700BFFB79013B184A52F8233027
:101D9400002B08DDFB79013B144A52F823307A69A1
:101DA400D31A3B6107E0FB79013B104A52F8233018
:101DB4007A6913443B613B69002B06DAFB79013BEA
:101DC4000A493A6941F8232008E0094B00221A70B5
:101DD400FB79013B054A002142F823103B69184670
:101DE4001837BD4680BD00BF282100087C000020B4
:101DF4008A00002080B586B004AF4FF0FF337B60CB
:101E0400FFF7D8FC00230293002301933A4B00937D
:101E14000123012200210020FEF72EFD002302935E
:101E240000230193354B009301230122012100205B
:101E3400FEF722FD0023029300230193304B00930D
:101E44000123012202210020FEF716FDFEF74CFBC0
:101E54004FF416510020FEF7BBF901210020FEF7D4
:101E6400E8F928490020FEF71DFA274B1B78002BC0
:101E7400FBD0254B1B781846FFF758FF78607B682A
:101E8400002B16D1FEF7F1FC204A00210020FEF7BA
:101E9400C3FC012301221E490020FEF7DEF94FF0A6
:101EA400FF337B604FF4FA70FEF75CFDFEF7DDFC58
:101EB400DBE77B68002B0CDD7868FFF713FF012359
:101EC400012213490020FEF7C8F94FF0FF337B606D
:101ED400CBE77B68002BC8DA0B4B1B78002BC4D0F4
:101EE40000210120FEF768FC7868FEF7AAFC094887
:101EF400FEF746FCB9E700BF211C0008C91B000817
:101F0400711B0008791C00088A0000203821000891
:101F1400000000204421000880B400AFFEE780B434
:101F240000AFFEE780B400AFFEE780B400AFFEE789
:101F340080B400AFFEE780B400AF00BFBD465DF8DB
:101F4400047B704780B400AF00BFBD465DF8047BDE
:101F5400704780B400AF00BFBD465DF8047B704796
:101F640080B400AF064BD3F88830054A43F47003BD
:101F7400C2F8883000BFBD465DF8047B704700BFDF
:101F840000ED00E0DFF834D00D480E490E4A00237E
:101F940002E0D458C4500433C4188C42F9D30B4A19
:101FA4000B4C002301E013600432A242FBD3FFF781
:101FB400D7FF00F06DF8FFF71DFF70470000012008
:101FC40000000020040000207C2100080400002000
:101FD4008C000020FEE7931E222B10B50C4604D97A
:101FE40000230B701C46204610BD0A2A09D1002884
:101FF40007DA2D230B7040420121214400F006F83A
:10200400F1E70021F9E7FFF7E6BF0000F0B51F4C48
:102014008BB005460B466E4604F1200C20686168BF
:10202400374603C7083464453E46F7D121793971F0
:10203400911E2068386022294FF0000104D91970DC
:102044000B4618460BB0F0BD581E8446B5FBF2F79C
:1020540002FB175628366E440C4616F8286C0CF80A
:10206400016F2E46B24201F101013D46EED9002234
:102074005A541919A51AAA42E3DA10F8015F0E7826
:102084000670013201F80159F4E700BF4D21000840
:1020940070B50D4D0D4C641BA4100026A64209D149
:1020A4000B4D0C4C00F018F8641BA4100026A6423B
:1020B40005D170BD55F8043B98470136EEE755F855
:1020C400043B98470136F2E77421000874210008A4
:1020D4007421000878210008F8B500BFF8BC08BCDA
:1020E4009E467047F8B500BFF8BC08BC9E467047D2
:1020F400506C65617365205061793A2000000000DE
:10210400204C4500416D6F756E7420506169643ACE
:102114002000000054616B65204368616E67653A76
:10212400200000002020202020202020202020200B
:10213400200000005468616E6B20596F7500000028
:10214400204C45204C6566740030313233343536CA
:102154003738396162636465666768696A6B6C6D98
:102164006E6F707172737475767778797A00000087
:04217400B9010008A5
:0421780095010008C5
:04217C00020000005D
:0400000508001F8947
:00000001FF
